:020000021000EC
:10B0000000400020A9DE0100E9DE0100EBDE0100C6
:10B010000000000000000000000000000000000030
:10B02000000000000000000000000000EDDE010054
:10B030000000000000000000EFDE0100F1DE010072
:10B040002DBC0100F3DE010075C20100F3DE01003A
:10B05000F3DE010000000000B1BD0100F3DE0100DD
:10B06000F3DE0100F3DE0100F3DE0100F3DE010098
:10B07000F3DE0100F3DE0100F3DE0100F3DE010088
:10B08000F3DE01004DB20100F3DE0100F3DE01004A
:10B0900029B30100F3DE0100EDE30100F3DE01005E
:10B0A000F3DE0100F3DE01000000000000000000FC
:10B0B0000000000000000000000000000000000090
:10B0C00010B5064C2378002B07D1054B002B02D07E
:10B0D000044800E000BF0123237010BD7020002051
:10B0E00000000000C4030200044B10B5002B03D085
:10B0F0000349044800E000BF10BDC0460000000046
:10B1000074200020C4030200402292029A1A924640
:10B110007047C046174B002B00D1134B9D46FFF7DD
:10B12000F3FF00218B460F461348144A121A00F011
:10B1300065F80E4B002B00D098470D4B002B00D02C
:10B1400098470020002104000D000D48002802D07F
:10B150000C4800E000BF00F02DF82000290001F0AD
:10B160001DFE00F011F8C0460000080000000000BD
:10B170000000000000400020702000200C2A002069
:10B180000000000000000000084B10B50400002B78
:10B1900002D0002100E000BF054B1868836A002B35
:10B1A00000D09847200000F031F8C04600000000B1
:10B1B00004FF010070B500260C4D0D4C641BA4105B
:10B1C000A64209D1002604F091FE0A4D0A4C641BE8
:10B1D000A410A64205D170BDB300EB5898470136C4
:10B1E000EEE7B300EB5898470136F2E768200020FD
:10B1F00068200020682000206C20002003008218B6
:10B20000934200D1704719700133F9E7FEE7C04659
:10B21000002300B585B001AA906000210348138087
:10B22000536000F005F805B000BDC04601400000C5
:10B23000BFF34F8F034B044ADA60BFF34F8FC04612
:10B24000FDE7C04600ED00E00400FA05A021F0B5DE
:10B250000023C6462B4A490000B5535004315350D1
:10B2600004315350043153504C395350043153502E
:10B27000254B1B68002B36D0244900255458244AFE
:10B2800000271268234EA41A2402240A03E043462E
:10B29000002B19D043461A68A24215D8A41AAD183B
:10B2A000DA6990461A7C002AF1D05A6999691F74AC
:10B2B0003368002B1AD0100098470028E7D0FFF71A
:10B2C000A7FF4346002BE5D11349144A0B781278A7
:10B2D0009A420ED0124A9B009D5080218023114A31
:10B2E0005B004903D15080BCB846F0BD08009047D0
:10B2F000CDE70132D3B2022B01D00B70EAE7002375
:10B300000B70E7E700100140AC20002004050000AE
:10B31000A82000208C200020A5200020A4200020B0
:10B320009C20002000E100E0F0B5DE4657464E4686
:10B330004546E0B5C44BC54A9B46C5491B688DB020
:10B34000059309781378994200D16DE10133DBB29E
:10B35000022B00D166E11370BE4A9B009D585A46ED
:10B360000126059B5B191B021B0A00931360BA4B55
:10B370009A461978B94B1B68019353465B78029340
:10B38000994200D13AE253465B68009803935346D2
:10B390009B780B9000200693B14B00271A788446C7
:10B3A00007920A920A000893019B049050008018AB
:10B3B000C0008146039C0132A046069CD2B2141BF9
:10B3C000601E8441484664422240039CC844205C7D
:10B3D000022800D1EEE0032808D1002B06D06046F9
:10B3E0001874DB69002BFAD1012004900298824284
:10B3F000DCD1002F00D06AE1049A002A08D0974AD5
:10B400001360019A0193D01A421E9041C2B2049275
:10B410000024002E00D00CE10023A446984605939A
:10B42000634600270198002B2DD06346DD695C68D8
:10B43000AC469A68009D8B4E651B2D022D0AB542C5
:10B4400051D80124AA181A605F609F601C74DF61E4
:10B45000002857D004680500944205D360E02E68A8
:10B46000964200D3C6E03400A946ED690992121B4A
:10B47000002DF4D11A604A46DD61D3610300180043
:10B480006346002BD1D1029B994200D11AE14B00B7
:10B490005B18069A0131C9B28A1A541EA241039E52
:10B4A000DB00F518F35C52421140012B3FD16B6871
:10B4B0001E7C002E3BD1AC68B1465C60EA689A60A5
:10B4C0002E69DE606D699D6101250595079D002D42
:10B4D000B0D04C460595009D624E651B2D025C6008
:10B4E0002D0AB542ADD9009D2C1B2402240A94429A
:10B4F0000CD2121B01241A605F609F601C74DF6114
:10B500000028A7D1012218009046B9E701221F6048
:10B510005F609F601A74DF610028F3D00022046826
:10B52000A21A02600122D86190461800A8E7029B87
:10B530009942ACD1534619704346002B00D1BBE071
:10B54000464B1860019B984202D1049B002B27D0E8
:10B55000002800D11EE1444A03684448444C815805
:10B56000009A25788A1A1202120A0332002D00D19D
:10B57000B6E0934254D3009AA824944663443B48CF
:10B580001B021B0A384DE400035142595B1A521A40
:10B590001202120A1B0203321B0A9A4200D9C5E0AA
:10B5A0000023089A13700DB0F0BCBB46B246A94602
:10B5B000A046F0BD404640688146002B00D115E70B
:10B5C000834200D1DFE018000400C069002800D1E8
:10B5D0000CE78145F8D10994A14515D00468C069EC
:10B5E000A046099CE061002800D1FFE604684444BD
:10B5F0000460FBE6A619099C361B2E601A604A46B9
:10B60000DD61D36103003AE7DB69002B00D1A7E0DD
:10B61000484600680124804648460494C069E5E72E
:10B620001300A8E7002396E6059B0025002600935B
:10B630009DE6019B002B00D1EDE0002700220020B9
:10B64000B84689462BE0C046A8200020A420002050
:10B65000A52000209C20002090200020AC2000206D
:10B6600098200020FEFF7F0004050000001001402C
:10B67000992000204246D968ED1BC0191A60DF6985
:10B68000002907D0DC611C00059A9960121812028B
:10B69000120A5A60002F00D16EE032003B001F6892
:10B6A000AF42E7D94946002A02D05C4A01931360B1
:10B6B0007D1B1D600496AFE6049B0198002B00D112
:10B6C0006EE745E7059B002B00D033E734E75C4687
:10B6D00008980A9A02700B980792206000908BE6F7
:10B6E0008025D1266D02B6008551403E8551C02788
:10B6F00080264B4DB6027F00EE512E60012505607D
:10B700004848494F06682F20C046C046C046C0463C
:10B71000C046C046C046C046BE4200D0C046013802
:10B72000F2D12570934200D325E779E743593E498A
:10B7300003513C4B1A682F23C046C046C046C04642
:10B74000C046C046C046C0468A4200D0C046013B03
:10B75000F2D180238021324A5B008902D1501FE759
:10B760000124324B01279C60002401230B940134F7
:10B7700004930A94002331E7284B49461F600023B5
:10B780000496019348E6DB690990002BE8D0012478
:10B79000049423E780218023214A8902D150802309
:10B7A000D2210125214A5B02890053504039535070
:10B7B0001C4B556019682F231B4C1E00C046C04609
:10B7C000C046C046C046C046C046C046A14200D0A2
:10B7D000C046013EF2D195605A461060C046C04650
:10B7E000C046C046C046C046C046C046A14200D082
:10B7F000C046013BF2D10E4B1870D1E653465B6850
:10B80000039353469B7806930A4B08931B78079340
:10B8100000230493FCE51C000496FDE5AC20002009
:10B8200000E100E0642000200024F400001001404A
:10B830009920002098200020F0B5DE4657464E465D
:10B8400045460324E0B5070020009B4610402242F5
:10B8500000D068E0002A00D165E080268025334CC6
:10B86000B6026651D2238026314D76029B00EE50FF
:10B87000403BEE5001232F4E6B60994633682F26D4
:10B880009C462D4B98463300C046C046C046C04635
:10B89000C046C046C046C046C44500D0C046013B75
:10B8A000F2D14B46AB60C046C046C046C046C0461B
:10B8B000C046C046C046C44500D0C046013EF2D195
:10B8C0005B461E4E30701E4E336000261D4B1880A6
:10B8D00099705A601C4B802218601C4BC5211E7049
:10B8E0001B4B52031E70C023FF265B00E2508900F1
:10B8F0006358B3433F3E33436350A123DB002260D0
:10B900000439EF506358134A1A40C0231B021343F3
:10B910006350114BEA58114B1A60F0BCBB46B2465B
:10B92000A946A046F0BD0720F7E7C04600E100E0C9
:10B9300000100140642000200024F4009920002021
:10B940008C20002090200020AC200020A42000208B
:10B95000A5200020FF00FFFF04050000A820002014
:10B96000094B5B68002B0AD0002A0AD0002808D0B7
:10B970000368187C002802D159745A617047082066
:10B98000FCE70720FAE7C04690200020F0B5C64645
:10B9900000B52A4D04006B680E00170082B0002B22
:10B9A00040D000283ED0042940D94369002B39D02B
:10B9B000437C012B38D0002398466A460023D01DD3
:10B9C000D37100F087F86978A8784A1CD2B2801A3F
:10B9D000431E98412B7840420240934228D04B00AE
:10B9E0005B186968DB008C466344002B20D0012182
:10B9F0001348197013495C604158DE6099604146F4
:10BA00005F6119616B46D8796A7000F083F8802312
:10BA1000802100200C4A5B004903D15002B080BC59
:10BA2000B846F0BD0820F9E78846C6E70720F5E7E5
:10BA30006B46D87900F06EF80420EFE790200020E4
:10BA4000001001400405000000E100E030B51F4D8A
:10BA500004006B6883B0002B30D000282ED04369DF
:10BA6000002B2BD000236A460374D01DD37100F045
:10BA700031F86978AB784A1CD2B29B1A581E8341C0
:10BA80005B421A402B7893421AD04B005B186968CE
:10BA9000DB008C466344002B12D002215C601970DD
:10BAA0006B46D8796A7000F035F880238021002039
:10BAB000074A5B004903D15003B030BD0820FBE7C3
:10BAC0006B46D87900F026F80420F5E79020002096
:10BAD00000E100E0F0B5EFF3108172B60A4B5A684E
:10BAE000002A0DD101248025084E5C607459084F4E
:10BAF0003C401C6077510270002900D162B6F0BD55
:10BB000001230370F8E7C0467829002000E100E037
:10BB1000FC06FFBC10B5084B5A68002A0BD0002861
:10BB200009D1EFF3108272B604491C680C605860AA
:10BB3000002A00D162B610BD7829002000E100E0A3
:10BB4000002804D0034B5B6E036000207047032085
:10BB5000FCE7C046B0200020A022044BD205D358F9
:10BB6000034A125C0120D34098437047040500004B
:10BB70000CFF0100044BA0211A5C01239340034AEF
:10BB8000C9058B507047C0460CFF01000C05000032
:10BB9000044BA0211A5C01239340A122C905D200C5
:10BBA0008B5070470CFF0100A022A1238021D205F9
:10BBB000DB008903D1508021C903D15080210904C1
:10BBC000D15080214904D1507047C046A022802125
:10BBD000064BD2058903D1508021C903D150802161
:10BBE0000904D15080214904D15070470C05000050
:10BBF000A02210B5074BD205D158074B185C012382
:10BC000083401C00A1208C430B400449C000145009
:10BC1000535010BD040500000CFF01000C0500008E
:10BC2000014B185C7047C04608FF010010B51A4B65
:10BC30001A68002A14D0002280211A60C22201232F
:10BC4000164CC90592008B506370A368002B07D077
:10BC50001A6800205B68A2609847A368002BF7D1A0
:10BC60000F4B1A68002A15D000221A608022C223C6
:10BC700002219B00D205D1500123084CA3702369F7
:10BC8000002B07D01A6801205B682261984723695E
:10BC9000002BF7D110BDC046000100401821002044
:10BCA0000401004010B500280BD1064CA368002BFE
:10BCB00007D01A6800205B68A2609847A368002B31
:10BCC000F7D110BD1821002010B582B06A460023BC
:10BCD000D01DD371FFF7FEFE144C2378002B0AD041
:10BCE000E3680133E3600123A3706B46D879FFF763
:10BCF00011FF02B010BD6360A3602361E3600C4BD1
:10BD00001B68DB070CD502F013FB002805D180224D
:10BD1000A3230121D205DB00D15001232370DFE7EB
:10BD20000321002000F006F8EDE7C04618210020AE
:10BD300000E100E0F0B500281EDB1B4B84089C46A8
:10BD40000323C2B21840FC331F00C026C000890183
:10BD500087400B408340A4006444B600A559BD430E
:10BD60002B43A3511F23C0211A401E3B93400E4A70
:10BD7000490053501360F0BD0C4C0325A4460F231B
:10BD8000FF240340C2B228402500C000890185403D
:10BD90000C408440083B9B089B006344DE69AE4333
:10BDA0003443DC61DEE7C04600E100E000ED00E086
:10BDB000F0B54E46DE46574645460021E0B5C84A36
:10BDC00087B0039113680026012B00D17DE1C54B9C
:10BDD0001A68012A00D16CE1C34B1A68012A00D10C
:10BDE0005BE1C24B1A68012A0DD0C14B1A68012AC7
:10BDF00000D183E1002E1ED107B0F0BCBB46B24695
:10BE0000A946A046F0BDC122BA499200895808222D
:10BE10000A42EAD000211960B54B16431A68012A7C
:10BE200009D11960A022A223D205DB00D3580393C5
:10BE300080231B061E43B04BA227984603230125EF
:10BE400000249946FF0035420ED0AA4AA3009A1852
:10BE5000D059D1594246D358002B05D04A46090C37
:10BE6000C0041140C00E984701346D00042CEAD183
:10BE7000002EC1DA0023C026072504939E4C013B07
:10BE800005934023E1564B1C3ED0C9B20800B04395
:10BE9000C3089C462A00012367460A40934005AA2E
:10BEA000D25D134230D08A0993462218203212788C
:10BEB00052B29200A2589146002A00D197E15A4608
:10BEC000032A00D197E1A027FF05B84682009044DD
:10BED000E0224746D200BA5803AF9203910F624660
:10BEE000BA5C13420DD002290ED15B46032B00D160
:10BEF000B5E1002398464B46002B07D05946C8476A
:10BF000004E0032900D18BE1002398464123E15648
:10BF10004B1C38D0C9B20800B043C3089C462A0065
:10BF2000012367460A40934005AAD25D13422AD0F6
:10BF3000221820321278890952B29200A258019137
:10BF40009146002A00D15FE1032900D15FE1A027DB
:10BF5000FF05BA4682009244E0225746D200BA5802
:10BF600003AF9203910F6246BA5C134200D10AE11B
:10BF7000022908D1019B032B00D168E14B46002B1D
:10BF800001D00199C8474223E1564B1C38D0C9B2B1
:10BF90000800B043C3089C462A00012367460A40B4
:10BFA000934005AAD25D13422AD02218203212787B
:10BFB000890952B29200A25801919146002A00D1FB
:10BFC00009E1032900D109E1A027FF05BA46820053
:10BFD0009244E0225746D200BA5803AF9203910F21
:10BFE0006246BA5C134200D1B1E0022908D1019B3C
:10BFF000032B00D12FE14B46002B01D00199C847FC
:10C000004323E1564B1C37D0C9B20800B043C308E4
:10C010009C462A00012367460A40934005AAD25D48
:10C02000134229D0221820321278890952B2920084
:10C03000A25801919146002A00D1C0E0032900D105
:10C04000C0E0A027FF05BA4682009244E02257468E
:10C05000D200BA5803AF9203910F6246BA5C134202
:10C0600058D0022908D1019B032B00D1FBE04B469D
:10C07000002B01D00199C8474346002B00D1BBE6F5
:10C08000A022A223D205DB00D358039A9A4200D102
:10C09000B2E60393049B0593F3E6C122154992008F
:10C0A000895804220A4200D19BE6002116431960F8
:10C0B00097E6C1220F499200895802220A4200D114
:10C0C0008AE600211643196086E6C1201E00094C4D
:10C0D000800020580640034200D178E6116076E6E1
:10C0E0000061004004610040086100400C610040B4
:10C0F0007C610040006000403021002000221A6076
:10C10000A022A223D205DB00D3580393002E00D136
:10C11000B0E68DE60329AFD1019B032BA7D1802385
:10C120009B029C46E0235246DB00D25850490A400D
:10C130005146CA50CA5861460A435146CA504B46F6
:10C14000002B9DD043460133DBB2984692E703298A
:10C1500000D055E7019B032B00D04CE780239B02C6
:10C160009C46E0235246DB00D25841490A405146E2
:10C17000CA50CA5861460A435146CA504346013321
:10C18000DBB2984637E7032900D0FCE6019B032B7E
:10C1900000D0F3E680239B029C46E0235246DB005E
:10C1A000D25833490A405146CA50CA5861460A43D8
:10C1B0005146CA5043460133DBB29846DEE60329B6
:10C1C00000D059E7674604AAD75D1F43BA466746C1
:10C1D0005146D15535E7032900D011E7674604AA37
:10C1E000D75D1F43BA4667465146D155ECE65A46DD
:10C1F000032A00D088E6674604AAD75D1F43B846E5
:10C2000067464146D1555EE6032900D0BBE6674646
:10C2100004AAD75D1F43BA4667465146D15596E6F4
:10C220005B46032B00D064E680239B029C46E02300
:10C230004246DB00D2580E490A404146CA50CA580D
:10C2400061460A434146CA500123984653E6C0233B
:10C250009B029C46A1E7C0239B029C4681E7C0232A
:10C260009B029C46E3E7C0239B029C465AE7C046DC
:10C27000FFFFFCFFC12330B55E4A9B00D35885B059
:10C280009B0559D592235B00D158002954D0002139
:10C29000D1508121E533FF338900D150564B997E2F
:10C2A000002901D101315160022269460A709021B2
:10C2B0005048C9004258425069460392DA7D6846A8
:10C2C0000A72DA6801920022DA751A760ACB984768
:10C2D0008E21484A49005358002B0FD0464B9C8A68
:10C2E0009D7DAC4262D200205050998A9868405C93
:10C2F000998A013189B29982404BD050A2233D4A9C
:10C300005B00D158002915D00021D1503A4B997EBD
:10C31000002901D001211160DA7D002A0AD0002213
:10C3200068460121DA755A7E01700272DA680ACB1A
:10C330000192984705B030BDC1232E4A9B00D358C7
:10C340005B07C5D5842149005358002BC0D02A4B28
:10C35000D87D002838D000205050A320C000597E3E
:10C360001258D86842545A7ED87D0132D2B25A76D9
:10C370005A7E8242ACD11A7E002A2AD19A7E002AA5
:10C3800002D101211B4A5160C22281201949920029
:10C3900080008850002268460121DA755A7E0170BB
:10C3A0000272DA680ACB0192984791E70020505058
:10C3B000002DA3D06A46107015729A689875019284
:10C3C00068460ACB984799E75050A321C9005258B4
:10C3D000CEE7DA751A69D968DA6000226C46587EB1
:10C3E0001A765A7601322072019168460ACB227081
:10C3F00098476DE700200040782100201C050000D0
:10C4000070B5884A01231268050014001C401A42C6
:10C4100001D1200070BD844C2378002B06D1172D4C
:10C4200000D9FCE0814AAB00D3589F46002323701B
:10C43000FFF7BAFBF3E77E4E3000FFF707FB11234F
:10C440000400581BAB4200D1CCE0002C00D0C9E066
:10C4500001280CD0B7336421584302F005F8754B1E
:10C460000022196841433000FFF790FA04000220CF
:10C47000FFF780FBCDE7012301202370FFF7B8FB16
:10C480006C4B002219686C48FFF780FA0400C0E783
:10C49000012301202370FFF7ABFB664B00221B68D2
:10C4A00065489900C918FFF771FA0400B1E7FFF772
:10C4B0008DFB624B00241D70ABE70020FFF74CFBA7
:10C4C000002800D19BE00020FFF762FBA91E4B4231
:10C4D00059411523494299432831584B00221D7078
:10C4E000544B55481B685943FFF750FA040090E736
:10C4F0000020FFF731FB002878D00020FFF748FB31
:10C5000005224E4B4C481A704A4B002219684900CC
:10C51000FFF73CFA04007CE7FFF758FB0C22474B7F
:10C5200000241A7075E70020FFF716FB002861D081
:10C530000020FFF72DFB08200322404B1A703D4BD3
:10C540000022196841433C48FFF720FA040060E7E5
:10C55000FFF72AFB0022394B00241A7059E7FFF736
:10C5600023FB1222354B00241A7052E7FFF71CFB05
:10C570000020FFF7FFFA1322304B00241A7048E71F
:10C58000FFF712FB0120FFF7F5FA14222B4B0024D2
:10C590001A703EE7FFF708FB0020FFF7EBFA0120D7
:10C5A000FFF7E8FA1522254B00241A7031E7002026
:10C5B000FFF71EFB0622214B1A7061E70020FFF7F0
:10C5C000D9FA07221D4B00241A7022E70020FFF73A
:10C5D000C3FA00281ED00020FFF7DAFA2820042230
:10C5E000164BABE70220FFF7D3FA12E70020FFF764
:10C5F000C1FA85E70020FFF7BDFA02209CE7002082
:10C60000FFF7B8FAA91E4B42594101234942994309
:10C61000043162E70020FFF7ADFA0420DFE70024D1
:10C62000F7E6C046C4210020C821002010FF010009
:10C6300094210020B4210020CC210020EC210020F6
:10C64000032807D8012A07D001290BD0022916D0C8
:10C6500000290DD00720704700220129F6D10200E1
:10C660000E32D2B243001818084BC2540020F2E731
:10C6700043001B180548C01882700020EBE74300F8
:10C680001B180248C01842700020E4E7B8210020BF
:10C6900010B5FFF7C5FAA023DB059C46E023800018
:10C6A0006044DB00C25805490A40C250C022C1584C
:10C6B00092020A43C250002010BDC046FFFFFCFF9B
:10C6C00010B50020FFF7E4FF002802D0062800D0B4
:10C6D00010BD0120FFF7DCFF0028F9D0831F5A1E90
:10C6E00093415B421840F3E710B50388102B08D044
:10C6F000112B05D1294A1368013B1360002B07D089
:10C7000010BD264C2368002B24D001332360F7E7AB
:10C71000012202210020FFF793FF002807D00728FD
:10C7200005D01F4B1B68002BEAD09847E8E707228B
:10C7300002210120FFF784FF002801D00728F0D153
:10C740000A2200210020FFF77BFF0028D8D007280D
:10C75000E7D1D5E7012200210020FFF771FF002873
:10C7600008D0072806D00E4B1B68002B00D0984736
:10C770002368CAE7072202210120FFF761FF002892
:10C7800001D00728EFD1042202210020FFF758FF33
:10C790000028EDD00728E6D1EAE7C046F4210020C2
:10C7A000F021002076DF70477ADF70477CDF70472A
:10C7B0007FDF7047A6DF7047A8DF7047A9DF7047AB
:10C7C00067DF70473CDF704748DF704710B5FEF702
:10C7D0001FFD10BD10B50378002B00D010BD054B18
:10C7E0003B211888FFF7DEFF0028F7D0FEF710FD89
:10C7F000F4E7C0465020002010B5002807D00328D9
:10C8000004D10138FFF7FCFD00280DD110BD002038
:10C81000FFF7F6FD00280AD1FFF752FF00280CD1E0
:10C82000FFF7D0FF0028F1D0FEF7F2FCEEE7FEF7AD
:10C83000EFFCFFF745FF0028F2D0FEF7E9FCEFE739
:10C84000F0B5DE4657464E464546E0B59D4B97B09F
:10C8500019889D4B1888814200D3FBE007AA0192FA
:10C860009A4A9B4B914692461B88019C5A1C6280B7
:10C870009A1CA280DA1CE2801A1D22815A1D628154
:10C880009A1DA281DA1DE281013222820132628286
:10C890000022002493460CAD12E0831E934206D181
:10C8A00000236B708B4B1B882B7001239B4602343B
:10C8B0000235142C00D195E0019A63105B00D35A25
:10C8C000DFB20A191B0A2F706B70824201DA4E46E2
:10C8D000B754571CB84201DD5646F355031F9A4220
:10C8E000DBD1FF23794A9B00D35C794A7A481288CE
:10C8F00001F0ECFF00236B70734B1B885A1F92B240
:10C90000042B00D1D9E0754EFF231D21B446A0466B
:10C910006E4829E05CB2DFB2002C30DB7B00DFB276
:10C920005BB27F00002B31DB7CB2FBB2002C32DB30
:10C930005F00FBB27FB2002F33DB5F00FBB27FB240
:10C94000002F34DB5F00FBB27FB2002F35DB5F00CE
:10C95000FBB27FB25B00002F00DA4B40013A92B28B
:10C96000DBB2013062452DD007787B405FB25B00BF
:10C97000002FCFDA4B405CB2DFB2002CCEDA7F0062
:10C980004F407BB2FFB27F00002BCDDA4F407CB22C
:10C99000FBB2002CCCDA5B004B405FB2DBB2002F65
:10C9A000CBDA5B004B405FB2DBB2002FCADA5B0030
:10C9B0004B405FB2DBB2002FC9DA5B004B405FB285
:10C9C000DBB2C7E7DB43DBB2444619009846444874
:10C9D00001F07CFF43462B703A4B19883A4B0A19F9
:10C9E00018885AE7D846401A13283ADC3D4801F027
:10C9F0006DFF354B3C481A88324B0CA91B88D21A64
:10CA000092B201F0E9FB394B984232D0082830D07D
:10CA1000374B98422DD000284CD14346002B03D0F1
:10CA20002C4A138801331380264B294A1988143164
:10CA300089B21980264B1B880A339BB21380224A85
:10CA40001088814200D210E7142101F093FD8CB2CE
:10CA5000002C12D017B0F0BCBB46B246A946A04687
:10CA6000F0BD142220480CA901F0B6FB1F4B9842E0
:10CA7000CCD1204801F02AFFECE71F4801F026FF47
:10CA800002AB03A95C8002338B60012311AA8B7077
:10CA9000154BCA608C809B890B80134B988AFFF7DB
:10CAA00089FE084B1988084B18888142D2D2084B5E
:10CAB0001B88DAE6FEF7ACFBAFE7002300219846BF
:10CAC00085E7C046BC260020BE260020BC220020F0
:10CAD000BA220020C02600207CFF0100FFFF0000DA
:10CAE00070FF010094FF0100C42600200430000004
:10CAF0000134000098FF0100A0FF010010B5040000
:10CB000084B001F079F921003D4801F06BFA2388E7
:10CB1000552B0BD83B4A9B00D3589F461321A08826
:10CB2000FFF740FE002801D0FEF772FB200001F065
:10CB30003FF82000FFF7D8FD04B010BD61893248EE
:10CB400001F0C4FEF2E7314B002218888521002352
:10CB5000FFF72EFE0028E9D0E6E72D4801F0B6FEEB
:10CB60000720FFF74DFC002847D1A288274B1A80E9
:10CB7000DCE7284801F0AAFE0022274B00201A809B
:10CB8000FFF73EFC002835D10122204B52421A808B
:10CB9000CCE7A379002BC9D0A27B043A022AC5D8DE
:10CBA000022B00D001236A461370C1235B009380DF
:10CBB0006946A088FFF700FE0028B7D0B4E7134B02
:10CBC0000022188800210023FFF7F8FD0028ADD0CF
:10CBD000AAE7124B1B78002BA8D0FFF731FEA5E780
:10CBE0000F4801F073FE0021A088FFF7E9FD00283F
:10CBF0009CD099E7FEF70CFBC6E7FEF709FBB4E70C
:10CC0000C4260020FCFF0100ECFF010050200020A2
:10CC1000B4FF0100C0FF0100C0260020B8220020A0
:10CC2000D0FF0100F0B5C64600B54D4B14008AB0E8
:10CC30001A6800AF3A601B790D003B711023FE1893
:10CC40003200484B03CB03C2474B29001A68BA6035
:10CC50006A461B793B73E31DDB08DB00D31A9D4654
:10CC60002200684601F09EFE404B290018009846BD
:10CC700001F02CFE032C4ED904223900684601F045
:10CC800080FE002817D11825394C3A4B228818709D
:10CC90003949781901F046FE23880E2201333748BE
:10CCA0007919238001F098FA002831D1BD460AB0E5
:10CCB00080BCB846F0BD082303226846F91801F08D
:10CCC00060FE041E32D10A22002101A801F02CFFCF
:10CCD0002B4D81B22B48298001F0F8FD6946404672
:10CCE00001F0F4FD284B2A881C80284B1C808023EF
:10CCF000DB009A422DD900221E4B25481A7001F004
:10CD0000E5FD142223491D4801F066FA0028CDD024
:10CD1000FEF77EFACAE70D221F49184801F05CFAB7
:10CD2000002813D10022134B1A70BFE707223100ED
:10CD3000684601F026FE0028B8D16B460A22D81DAD
:10CD4000002101F0F1FE0E4B1880AFE7FEF760FA0C
:10CD5000E8E70122074B1A70FFF772FDA6E7C0460D
:10CD6000B4010200BC010200C4010200540102002F
:10CD7000C0260020B822002060010200C426002046
:10CD8000BE26002070010200BC260020BA2200202E
:10CD9000840102008C010200A4010200802010B571
:10CDA000C000AAB001F0D6FC8021C90000F0F6F85E
:10CDB0006C4B052118606C4A00230020FEF73CFDF7
:10CDC000002800D0AFE0694B48221B6868490393F4
:10CDD0000C930CA8002301F0B1FA002800D0BDE0AC
:10CDE000012100201BAA01F019FB002800D0B2E0AD
:10CDF0001BA801F02BFB002800D0A9E05D4801F042
:10CE0000EBFA002800D0A0E0282111235A4C02AAF6
:10CE100052181370200001F0ADFD210082B20CA861
:10CE2000FFF7C4FC002800D08CE0082200211BA8DA
:10CE3000FEF7E4F9514B1BA81B93C8235B041C931A
:10CE4000FFF7B2FC00287AD1002104221BA8FEF7CC
:10CE5000D5F94B4B4B481BA91B9301F0F5F8002863
:10CE60006AD13C2200210CA8FEF7C8F92821022330
:10CE700002AA52181370A02302AADB0053850021D6
:10CE80003C221BA8FEF7BAF97421012302AA52180A
:10CE9000138004AC3C4B2022002120002093FEF79D
:10CEA000ADF90123A022E370B42308920993002373
:10CEB000220000931BA9354B0CA800F07FFD002831
:10CEC00037D11C2200211BA8FEF798F9A02292025C
:10CED0001C92F022702012031D92032202A909184D
:10CEE0000A707221002302AA52181380023102AA8A
:10CEF00052181B931370264B1BA82093254B21938C
:10CF000000F03EFF002811D1234801F0DFFC032090
:10CF100000F02CFE002803D1FFF756FC0028FBD0C0
:10CF2000FEF776F9F8E7FEF773F94CE7FEF770F9CC
:10CF3000EAE7FEF76DF9C4E7FEF76AF991E7FEF755
:10CF400067F981E7FEF764F96FE7FEF761F95BE7E0
:10CF5000FEF75EF952E7FEF75BF949E7FEF758F98D
:10CF60003EE7C04680290020F8210020E8010200A9
:10CF700070220020FDCA0100CC010200060006005C
:10CF800025CC0100C42600204C200020F9C7010058
:10CF9000D5C70100CDC70100D801020070B505005A
:10CFA00014200C0001F0D6FB00230560C460436030
:10CFB0008360036170BDC04610B51C0011000020E5
:10CFC0001A0000F003F8200010BDC046F0B5454639
:10CFD00057464E46DE46E0B57C4E050033788A461D
:10CFE000904683B0002B22D06A460023D01CD37019
:10CFF0000193FEF76FFD6B005C19E4003419E26ADF
:10D000009146012A00D18FE0022A52D0002A2DD069
:10D0100000239946019B6B46D878FEF77BFD484676
:10D0200003B0F0BCBB46B246A946A046F0BD022202
:10D0300032617261664A6749B261B264664AF161FF
:10D04000F26440211022B362F3627362F365B36548
:10D050003162736561493265F01D01F083FC300077
:10D060005F4901F07FFC2023B371BDE7A26A616ACA
:10D070008A4200D880E0013A521A9045CAD85C1919
:10D08000E40034190135236A676A680040199B4639
:10D09000C000DB1B99463618984500D383E07068C2
:10D0A0004246C0195146474401F05EFBC1466762E3
:10D0B000B0E70023681C994643001818C3009B463C
:10D0C000676AA36ABB4222D9013B256ADB1B434541
:10D0D00000D94346ED1B9D4200D91D005B46F31865
:10D0E00058685146C0192A0001F03EFB43465B1BBD
:10D0F0009846236A7F19A944AA449F420CD043460C
:10D100006762002B00D185E7A36ABB42DCD8256AA1
:10D110005B19013BDB1BDAE7002363624346002B0C
:10D1200000D177E70027CCE7A26A616A8A421ED95C
:10D13000013A276A521AC146904500D991465C19B6
:10D14000E40034190135636A680040199B46C00049
:10D15000FB1A98463618994513D25F4670684A46BE
:10D16000514658444F4401F0FFFA676252E7276A7C
:10D17000D219013A521ADEE7206A1218013A521AFD
:10D180007BE7736842465B441800514601F0ECFAB5
:10D190004B465146DF1B5F443A007068414401F042
:10D1A000E3FA676236E773684A46D819514601F0D8
:10D1B000DBFA5B4651464744FF1A49443A0070681F
:10D1C00001F0D2FAC146676224E7C04684290020F4
:10D1D000EC010200F0260020E0260020F801020009
:10D1E000FC01020071DF704772DF704779DF704722
:10D1F0007DDF704765DF7047F0B557464E464546C0
:10D20000DE46E0B587B0984612AB1B88119F0193AC
:10D210003B888146039303888A460292002B60D0A4
:10D2200000239B4604AB0025DE1C04E04B461B8814
:10D2300001359D422FDA53461B68A9009C46042203
:10D24000614405A801F090FA0022310005A8FFF71B
:10D25000D1FF041E2BD133784345E7D15B46002B29
:10D260002DD043463A880199D3188B423BDC109B62
:10D2700031009C4605A86244FFF7BCFF002834D16A
:10D280003A88337801359B183B8001239B464B46F7
:10D290001B889D42CFDB5B46002B22D03B88039A44
:10D2A000013B9B1A9BB2FF2B1DD810998B54200079
:10D2B00007B0F0BCBB46B246A946A046F0BD424608
:10D2C0003B8801999A1802328A420CDC109A029922
:10D2D00001339BB23B80D1543A88013292B23A80FA
:10D2E000C5E70024E3E70C24E1E70400DFE7C046DC
:10D2F000F0B54E464546DE465746E0B51388140065
:10D300009946002313802D33C25C05000E000023D4
:10D3100087B0002A00D0FAE0AA78002A00D0EBE01B
:10D32000EA78002A14D0D91C494500D9E7E0022147
:10D33000F1542388013901339BB22380F1542388AF
:10D3400001339BB22380F254238801339BB22380A4
:10D350006A68002A15D0D91C494500D9CFE00221BE
:10D360001278F1542388083101339BB22380F154A1
:10D37000238852B201339BB22380F25423880133B5
:10D3800023802B89002B00D0EBE02B8A002B00D0D0
:10D3900026E12B8B002B00D045E12B6A002B41D0DE
:10D3A0002788BA1D4A4500D9A9E01A88052A00D85D
:10D3B000A1E1B249B248511889B28046814200D8F1
:10D3C00099E15988052900D895E1AC4884468C44F8
:10D3D000604680B2404500D88DE1AA48824204D020
:10D3E000814202D08A4200D985E105221221F255FC
:10D3F0002288013292B22280B1542288013292B244
:10D4000022801988B2181170090A517022880232DC
:10D4100092B222805988B2181170090A517023887B
:10D42000023323806F6A002F2BD0BA882088911C8A
:10D43000831C5B184B4562D8FE2960D803323254F6
:10D44000FF22238801339BB22380F25423880133C7
:10D450009BB223803A88F3181A70120A5A702088F7
:10D46000023080B22080BA88002A0AD0B968002928
:10D4700000D140E1301801F077F92388BA889B1871
:10D4800023802C23EB5C002B00D0ECE02A780020DA
:10D49000002A35D02B88012B00D12CE12188881C53
:10D4A00048452CD8012A04D16B7802335B18994582
:10D4B00025D34B46023B5B1A9FB26B46301804A93A
:10D4C0001F82FFF795FE00281AD12B78022B00D17E
:10D4D0001AE1012B00D110E10822FE2F0FD823887A
:10D4E000791CF154238801339BB22380F2542388A2
:10D4F0000133FB18238003E004334B4553D90C2040
:10D5000007B0F0BCBB46B246A946A046F0BD4B46AC
:10D51000082BF4D904A8FFF765FE0028F0D10822F3
:10D52000112123886944F2542388133201339BB2BA
:10D530002380F2542088153A013080B220803018C0
:10D5400001F012F96A462388127C06339BB22380CD
:10D55000002A00D00122F254238801339BB2238099
:10D56000DAE60C232F0098464B460837A84402936E
:10D57000022202234146380001940096FFF73CFE48
:10D580000028BDD14B4606220293414610233800A5
:10D5900001940096FFF730FE0028B1D12B8A002BB2
:10D5A00000D1F6E61CE004A8FFF720FE0028A7D172
:10D5B00003222388F2542388163201339BB223803E
:10D5C000F2546A462388128A01339BB22380F318EF
:10D5D0001A70120A5A70238802339BB223809FE686
:10D5E00014232F0098464B461037A8440293032279
:10D5F00002234146380001940096FFF7FDFD002804
:10D6000000D07DE74B4607220293414610233800A5
:10D6100001940096FFF7F0FD002800D070E72B8BF7
:10D62000002B00D1B9E61C232F0098464B46183733
:10D63000A844029314220223414638000194009624
:10D64000FFF7DAFD002800D05AE74B461522029377
:10D6500041461023380001940096FFF7CDFD0028C5
:10D6600000D19AE64CE7AF6A002F44D000239846D9
:10D6700016339A4616339B4633E0C0467FF3FFFFCE
:10D680007DF30000FFFF000022880333B3545246AD
:10D69000238801339BB22380F254238801339BB249
:10D6A00023803A88F3181A70120A5A7020880230C0
:10D6B00080B22080BA88002A09D0B96800291AD01F
:10D6C000301801F051F82388BA889B18238043460C
:10D6D0000133DBB298465B46EB5C434500D8D5E6A8
:10D6E000AF6A43465B0043449B00FF18BB889A1C0B
:10D6F000FE2AC9D903E7072002E76B789F4200D2D0
:10D70000EAE61F000822E8E66B461B8A9F4200D229
:10D71000E2E61F000922E0E630B593B01F236A4617
:10D7200004000D009380D380002821D0C3785B07CC
:10D7300025D501AA02A9FFF7DBFD002816D102AC0E
:10D74000002D18D0EB78002B19D16B4628009A1DBC
:10D750000AA9FFF7CDFD002808D16B469B790AADD9
:10D760006A46200011792A00FFF73EFD13B030BD54
:10D770009080002DE6D16B46DD800023F0E7072086
:10D78000F4E7C04673DF7047F0B5804D0722040010
:10D790000021280087B0FDF731FD7D4E7D4B3268BA
:10D7A0007D4F1A4202D03B78012B47D0B378002B33
:10D7B00041D16B78002B68D1AB78002B65D1EB7829
:10D7C000002B62D12B79002B5FD16B79002B5CD1C0
:10D7D000AB795A1E9341DBB2032C0AD026D8012C18
:10D7E00055D0022C24D1B278002A02D0002B00D0D0
:10D7F000C8E0F378002B00D0B8E03379002B00D0DC
:10D800009EE000243C700022644B1A701822002114
:10D810006846FDF7F3FC00236A46137013723B78E9
:10D82000042B21D85E4A9B00D3589F46042CE4D099
:10D8300000233B70E7E73B78022BBAD1594B5A4A99
:10D840001B68002B00D19BE0012108201170984734
:10D85000AFE70222554B01951A706A4601231370F7
:10D86000F3685382B36813826846FFF78BFF002882
:10D8700007D14C4B1B68002B05D04C4A10789847B9
:10D88000002007B0F0BD0020FBE70123A4E7727879
:10D89000002AA8D0002BACD0B4E76A4633691382C3
:10D8A000736953823378002B62D0414B1B78002B75
:10D8B0005ED1404A1379117B0B4359D00223039266
:10D8C0006A463D48137200210233C370FFF724FFFC
:10D8D000002859D10522354B1A703B782DE00123E1
:10D8E000324A019513706A46137000230493BBE714
:10D8F00000222E4B1A70BCE76A46B3691382F369A3
:10D9000053823378002B37D0294B1B78002B33D12F
:10D91000284A1379117B0B432ED0022303926A46C7
:10D920002548137200210233C370FFF7F5FE00286B
:10D930002AD106221D4B1A703B78002B99D093E711
:10D9400004233B70174B1A68002A00D15BE7337839
:10D95000002B00D157E7164B1B78002B00D052E765
:10D9600001210E4B0720197090474FE70323E8E78A
:10D9700003220E4B1A7077E704220C4B1A7073E7E0
:10D98000137016E702243DE73B78D6E71028002005
:10D990003427002000FFFF0031270020002900204D
:10D9A00004020200982700200C28002030270020C5
:10D9B000012900205420002054270020F8B504003D
:10D9C0000E00002800D1AEE0002A00D1ABE001201B
:10D9D0005649087000205649087056480100A1CAEF
:10D9E000A1C1A1CAA1C121CA21C1534A002113600A
:10D9F000524B069A52481A600122524B52421A80E8
:10DA00000832FDF7FBFB504D00213C222800FDF7BA
:10DA1000F5FB237822002B70A3781032AB70E378EB
:10DA2000EB7063786B702B00103303CA03C32B00B9
:10DA3000103A083303CA03C32B000832183303CA51
:10DA400003C3636A002B11D0404B414F6B62616A84
:10DA50009F600A881A8088889880002806D0002352
:10DA60008A68D25CFA5401338342F9D3A36A002B4B
:10DA700014D0384B384FAB62A06A9F608188998080
:10DA800002881A800023002905D08268D25CFA54EB
:10DA900001339942F9D82C23E25CEA54236A002B23
:10DAA00006D02E4B2B62226A5188598012881A8028
:10DAB0006368002B00D06B6029492A4B0A68D81D87
:10DAC00013600A68506018000E309060180015301E
:10DAD000D06018001C30106118002330506118000D
:10DAE0003133D361204B2A30906118008A6810309E
:10DAF00013608A68506018008A68203090608A68D5
:10DB000019003031D16019004031116119005031D4
:10DB10005161190070336031916128003100D36187
:10DB2000FFF7FAFDF8BD0E20FCE7C0469C27002059
:10DB30003127002034270020982700209427002038
:10DB4000102800209227002054270020C027002002
:10DB5000A027002018280020242800204428002086
:10DB600054200020482800208028002010B50D4BAC
:10DB700004001B7882B0002B11D00B4B187001A849
:10DB8000FDF7DEFF019B002B05D001220020074B93
:10DB90001A7002B010BD2000FFF7F6FDF9E708206B
:10DBA000F7E7C0469C27002031270020902700205F
:10DBB00030B5038883B0112B05D01B2B25D0102B3B
:10DBC0001CD003B030BD0021234A83881170234A42
:10DBD00012889A42F5D1224B1B78002B2ED00122BD
:10DBE000204B01A81A70FDF7ABFF019B002B21D140
:10DBF0000120FFF7C9FD002821D1E2E7837D012B39
:10DC0000DFD18288154B1A80DBE7037A002BD8D14D
:10DC1000134B1B78002B11D0124D052128780130B1
:10DC200000F092FD01A8CCB22C70FDF789FF019B9A
:10DC3000002B0AD001220C4B1A70C2E708200B4BB4
:10DC40001B68002BBDD09847BBE72000FFF79CFD69
:10DC50000028F4D1B5E7C046012900209227002012
:10DC60009C270020312700209027002094270020A7
:10DC700075DF704776DF70477ADF70477BDF70476C
:10DC800010B5184B82B01888174B984214D0174A19
:10DC9000174C13780133DBB21370217B99420DD2FC
:10DCA00000231370237C002B12D16369002B03D057
:10DCB000002201A80270984702B010BD0D49FFF77D
:10DCC000D7FF0028F8D0A369002BF5D09847F3E7D9
:10DCD0003B21FFF7CFFF0028E7D0A369002BE4D05A
:10DCE0009847E2E704290020FFFF000054290020A4
:10DCF000082900204C29002030B51B4B1B4A5B88AB
:10DD0000118883B099420CD852889A4209D3184B93
:10DD10005B69002B03D0012201A802709847154CC3
:10DD20000BE0144C2378002B0BD0114B5B69002BBC
:10DD300003D0002201A8027098470023237003B08B
:10DD400030BD0D4B0A4D1B78002B0BD0A96800226B
:10DD50000A48FDF71BFE0028EFD0AB69002BECD082
:10DD60009847EAE76968F2E7442900204C29002037
:10DD700008290020022900205429002024290020FD
:10DD8000164902000B0070B532CA32C332CA32C320
:10DD900012681A600022124B01681A70002916D00E
:10DDA000104C0832200000F0DFFC2000FFF764FF79
:10DDB00000280BD101220C4B52421A8000220B4B3F
:10DDC00000211A700A480B4AFDF7CAFD70BD0548CC
:10DDD000FFF754FF0028EDD0F8E7C04608290020DF
:10DDE000022900204C290020042900205429002069
:10DDF0001802020081DC010010B50388122B2FD01D
:10DE000015D8102B33D0112B10D101221F4B5242A9
:10DE10001A8000221E4B1F481A70FDF717FE0028BB
:10DE200004D01D4B9B69002B00D0984710BD502B90
:10DE3000FCD1194CC288E3899A42F7D1038A022B9C
:10DE4000F4D1123000F02CF800280DD11148FDF764
:10DE5000FDFD0028EAD0A369002BE7D09847E5E74D
:10DE60000E4B083006C806C3FFF746FFDEE7828880
:10DE7000064B18301A80094B06C806C30022044B13
:10DE80001A70054BDB89002BD0D1EDE70429002067
:10DE9000542900202429002008290020442900209A
:10DEA000012300781840704703210A4802680A439A
:10DEB0000260094802680A4302600849084A094B9F
:10DEC0009B1A03DD043BC858D050FBDC00F012F86D
:10DED000FDF720F92405004054050040D00302005E
:10DEE000E81F002070200020FEE7FEE7FEE7FEE7C7
:10DEF000FEE7FEE72D4B1B78012B00D070472C4B23
:10DF00001B681B07FAD12B4AF02312681100194035
:10DF10001A4201D0102946D1274A12681A421FD04E
:10DF2000F022244B1B681340402B29D0F022214BB8
:10DF30001B681340A02B01D0D02BDFD1F0231E4A49
:10DF400012681A42DAD11D4A1368012B04D01C4B07
:10DF500013601368012BFCD1C0221A4B1A60CDE765
:10DF6000194B1A4A1A608022194B12021A600F4B81
:10DF70001B78012BC2D10E4B1B681B07D0D0BDE70D
:10DF80000D4B1B681342D1D18022C1230121DB003C
:10DF9000D205D150054B1B78012BAFD1044B1B6828
:10DFA0001B07C3D0AAE73029B6D0B9E7E00F00F0CD
:10DFB000E40F00F0E80F00F0EC0F00F000EC06407A
:10DFC0007593000014EC064004050040DFFF07C015
:10DFD000186C0040A0DF7047A2DF7047A6DF7047D3
:10DFE00063DF704710B5041E08D0002906D00B88E7
:10DFF000112B16D0502B05D0102B00D010BD8B88C4
:10E000008382FBE7CB88028A9A420ED0A2889A428A
:10E01000F4D1A369002BF1D00A8A2000123198476D
:10E02000ECE701235B428382E8E70A8A022AEDD10A
:10E0300012310800FFF734FF002802D00123A37536
:10E04000DCE7A075DAE7C046F0B557464E464546D0
:10E05000DE46E0B595B0040004A802005C4BE0CBBE
:10E06000E0C21B681360002C00D1AFE0002900D192
:10E07000ACE001235B42A3820B682100A361002373
:10E08000A375FFF7ADFF051E07D0280015B0F0BC43
:10E09000BB46B246A946A046F0BD6A462378012099
:10E0A0009372012398466B46424602A91A81A21C2C
:10E0B000FFF790FF051EE8D1032200216846FDF717
:10E0C0009DF8444B002199466B464A461A80062229
:10E0D0009B780DA89343022213436A4693701C2237
:10E0E000FDF78CF834216B4610225B181B7803AFC8
:10E0F00013436A46521813706B461293237801AE8D
:10E10000BB7003230322002130000E95109511955A
:10E1100013953B80FDF772F84B461F223380B3788E
:10E12000934693430322924652460021134308A884
:10E130001422B370FDF762F843466A460A9313331C
:10E14000938523000DAD290060880C3308AA089739
:10E150000996FFF741FF051E97D11C2200210DA84B
:10E16000FDF74CF834216A46521813780C22934379
:10E1700013436A465218137023780322BB7002239C
:10E18000002130000E9510951195129513953B8046
:10E19000FDF734F84A4632805A46B378002193435B
:10E1A000524608A813431422B370FDF727F84246DD
:10E1B00014230A926A4693856088231D08AA0DA934
:10E1C00008970996FFF708FF05005EE70E255CE754
:10E1D0001C0202001111000070B586B06B460400ED
:10E1E0000D009E1DDA8000281FD0828A104B9A42B3
:10E1F00019D0837D002B16D03388142B11D8102210
:10E20000002102A8FCF7FAFF6A46A38902A913813C
:10E2100001239372A08A05950496FFF7DFFE06B0EE
:10E2200070BD0720FBE70820F9E70E20F7E7C0469E
:10E23000FFFF000052DF704710DF704760DF70475C
:10E2400061DF704710B5FCF7F3FF10BDF0B546462F
:10E25000D6464F46C0B5314B314D1C689846634297
:10E260005C412B7882B0E4B2002B2DD12D4B01A85C
:10E2700099462D4EFFF7DEFF05283FD0002829D014
:10E28000FCF7C6FF002C30D100239A462B78DCB275
:10E29000002B19D14B466A4637681B88380001A904
:10E2A0009380FFF7CDFF05282BD000282DD14346C2
:10E2B00038001B6898475346002B17D001239A4615
:10E2C0002B78DCB2002BE5D002B0E0BCBA46B146F8
:10E2D000A846F0BD0198FDF7E5FC144B1B68002B28
:10E2E00001D001989847002CCED001242B78002B28
:10E2F000EAD101A8FFF79EFF0528BFD1002CDDD091
:10E30000E2E75346002BF0D0DEE7FCF781FF5346EF
:10E31000002BD3D12B78002BEBD0D5E75829002048
:10E320006129002056290020682900206429002046
:10E33000014B1878C0B270476029002070B50029E1
:10E3400031D08C072FD101251B4C21601B491C4C5F
:10E350000A801C4A136023681D4208D080231A4992
:10E36000E550FFF769FF002806D0256070BD16490B
:10E37000FFF762FF0028F9D10124144B1C70FDF750
:10E38000A3FCC5230E4A9B00D3589B0D1C420CD006
:10E390000F4B586800280AD080221968D2030A431C
:10E3A00000201A60E2E70720E0E70A48DEE7802362
:10E3B000DB031360DAE7C0466829002056290020F5
:10E3C00000E100E05C29002045E201006029002016
:10E3D0007829002002200000002803D0024B18609A
:10E3E000002070470E20FCE75829002010B5094B8B
:10E3F0001B68002B06D09847002800D110BDFCF701
:10E4000007FFFBE7044B1B78002BF7D0FFF71EFF3D
:10E41000F4E7C0465C2900206029002070B5140094
:10E4200005000E00142200212000FCF7E7FE002367
:10E4300001222361237B228093432373267265721A
:10E44000002D01D00123A372002070BD00B5054B43
:10E4500083B00193019B69460093FFF7EFFE019B98
:10E4600003B000BDE81F0020002243088B4274D394
:10E4700003098B425FD3030A8B4244D3030B8B42C5
:10E4800028D3030C8B420DD3FF22090212BA030CCE
:10E490008B4202D31212090265D0030B8B4219D3AF
:10E4A00000E0090AC30B8B4201D3CB03C01A5241CF
:10E4B000830B8B4201D38B03C01A5241430B8B4217
:10E4C00001D34B03C01A5241030B8B4201D30B0300
:10E4D000C01A5241C30A8B4201D3CB02C01A524127
:10E4E000830A8B4201D38B02C01A5241430A8B42EA
:10E4F00001D34B02C01A5241030A8B4201D30B02D3
:10E50000C01A5241CDD2C3098B4201D3CB01C01AEC
:10E51000524183098B4201D38B01C01A52414309F6
:10E520008B4201D34B01C01A524103098B4201D3E4
:10E530000B01C01A5241C3088B4201D3CB00C01A51
:10E54000524183088B4201D38B00C01A52414308C9
:10E550008B4201D34B00C01A5241411A00D20146EE
:10E56000524110467047FFE701B5002000F0F0F877
:10E5700002BDC0460029F7D076E7704703460B433B
:10E580007FD4002243088B4274D303098B425FD3AC
:10E59000030A8B4244D3030B8B4228D3030C8B42D8
:10E5A0000DD3FF22090212BA030C8B4202D31212BE
:10E5B000090265D0030B8B4219D300E0090AC30B93
:10E5C0008B4201D3CB03C01A5241830B8B4201D340
:10E5D0008B03C01A5241430B8B4201D34B03C01A29
:10E5E0005241030B8B4201D30B03C01A5241C30AA1
:10E5F0008B4201D3CB02C01A5241830A8B4201D312
:10E600008B02C01A5241430A8B4201D34B02C01AFB
:10E610005241030A8B4201D30B02C01A5241CDD2A0
:10E62000C3098B4201D3CB01C01A524183098B42EB
:10E6300001D38B01C01A524143098B4201D34B01D4
:10E64000C01A524103098B4201D30B01C01A524137
:10E65000C3088B4201D3CB00C01A524183088B42BE
:10E6600001D38B00C01A524143088B4201D34B00A7
:10E67000C01A5241411A00D2014652411046704719
:10E680005DE0CA0F00D04942031000D3404253401E
:10E6900000229C4603098B422DD3030A8B4212D3DE
:10E6A000FC22890112BA030A8B420CD38901921110
:10E6B0008B4208D3890192118B4204D389013AD04D
:10E6C000921100E08909C3098B4201D3CB01C01A22
:10E6D000524183098B4201D38B01C01A5241430935
:10E6E0008B4201D34B01C01A524103098B4201D323
:10E6F0000B01C01A5241C3088B4201D3CB00C01A90
:10E70000524183088B4201D38B00C01A5241D9D2A7
:10E7100043088B4201D34B00C01A5241411A00D228
:10E720000146634652415B10104601D34042002B24
:10E7300000D54942704763465B1000D3404201B5A3
:10E74000002000F005F802BD0029F8D016E7704758
:10E750007047C04610B5034B0100186800F058F828
:10E7600010BDC046E81F0020002310B59A4200D11A
:10E7700010BDCC5CC4540133F8E7000070B505004F
:10E78000002910D00C1F2368002B00DAE4182800A1
:10E7900000F0DCFA1D4A1368002B05D16360146099
:10E7A000280000F0DBFA70BDA34208D92168601888
:10E7B0008342F3D118685B6841182160EEE71A00C4
:10E7C0005B68002B01D0A342F9D911685018A04210
:10E7D0000BD120680918501811608342E0D11868E5
:10E7E0005B68411811605360DAE7A04202D90C233C
:10E7F0002B60D5E721686018834203D118685B68F5
:10E800004118216063605460CAE7C0466C2900204B
:10E81000F8B50323CD1C9D43083506000C2D1FD2EF
:10E820000C25A9421ED8300000F090FA25490A684C
:10E830001400002C1AD1244F3B68002B04D1210076
:10E84000300000F05DF838602900300000F058F822
:10E85000431C2BD10C233000336000F07FFA03E01F
:10E86000002DDEDA0C2333600020F8BD23685B1B2B
:10E8700019D40B2B03D92360E418256003E06368E7
:10E88000A2420ED10B60300000F068FA200007228F
:10E890000B30231D9043C21A9842E6D01B1AA35096
:10E8A000E3E75360EFE722006468C2E70323C41C78
:10E8B0009C43A042E1D0211A300000F021F8431C13
:10E8C000DBD1C7E76C290020702900200FB40B4B67
:10E8D00013B51C68002C05D0A369002B02D12000C1
:10E8E00000F090F905AB2000049AA168019300F0B4
:10E8F000C7FB16BC08BC04B01847C046E81F002080
:10E90000002370B5064D040008002B6001F0E0FA0A
:10E91000431C03D12B68002B00D0236070BDC04680
:10E92000082A00200EB400B50B499CB01DAB029024
:10E930000690079104910948094904CB05910068A4
:10E9400002A9019300F074FA0023029A13701CB01C
:10E9500008BC03B01847C046FFFFFF7FE81F002038
:10E960000802FFFF03000A7801311A700133002A00
:10E97000F9D170470023C25C0133002AFBD1581E35
:10E98000704730B50500101E0BD00024013A2B5DF6
:10E99000085D834204D1944202D00134002BF6D1A9
:10E9A000181A30BD030030B51D00002A06D00C78BF
:10E9B000013A01332C700131002CF5D100219A1855
:10E9C000934200D130BD19700133F9E7F0B51E0054
:10E9D000544B8BB00F0002919C4608210990039282
:10E9E0003B0062461C787D1C105D2F0002000A402F
:10E9F0000842F5D12D2C54D12C789D1C0123019374
:10EA0000002E00D189E0102E0AD1302C08D120220E
:10EA10002B789343582B00D079E010266C78023580
:10EA2000F71732003B0001204042C11701F0EAF81D
:10EA30003200079006913B0001204042C11701F0CF
:10EA4000E1F800230020002108922200303A092A30
:10EA50002ED81400A6423ADD002B35DB069B9942E6
:10EA600032D802D1079B98422ED8079B834207D108
:10EA7000069B8B4204D10123089A5B42A2420DDB24
:10EA80000B0002003900300001F0DCF8E3170494B9
:10EA90000593049B059CC018614101232C78013526
:10EAA000D3E72B2C01D00192AAE72C789D1CFAE722
:10EAB0002200413A192A01D8373CCBE72200613ABB
:10EAC000192A04D8573CC5E701235B42E6E7002B2F
:10EAD0000ADA2223099A01204042C1171360039BDE
:10EAE000002B0ED10BB0F0BD019A002A04D0060015
:10EAF0000F0000217042B941039A002AF2D0002B86
:10EB000001D06B1E0293039B029A1A60EAE730243D
:10EB1000002E00D084E7083682E7302C00D176E75B
:10EB20000A267DE72D02020010B513000A0001003D
:10EB300002480068FFF74AFF10BDC046E81F0020EA
:10EB4000002310B504000360436083608181436645
:10EB50001900C28103614361836108225C30FCF7C4
:10EB60004DFB054B6362054B2462A362044BE362D9
:10EB7000044B236310BDC046F9F5010021F60100E6
:10EB800059F6010085F6010010B5024900F0BAF807
:10EB900010BDC04669F9010070B568254A1E55438D
:10EBA0000E0029007431FFF733FE041E08D0002147
:10EBB0002A00016046600C30A0606832FCF71EFB42
:10EBC000200070BD10B5024800F0BDF810BDC04671
:10EBD000042A002010B5024800F0B6F810BDC04667
:10EBE000042A002010B5024800F0ADF810BDC04660
:10EBF000FF29002010B5024800F0A6F810BDC0465D
:10EC0000FF29002013B50400FFF7ECFFA369002BD8
:10EC100002D0FFF7EFFF13BDA364E3642365134B3A
:10EC2000134A1B68A2620193A34201D10123A3618D
:10EC3000200000F01FF86060200000F01BF8A060CA
:10EC4000200000F017F800220421E0606068FFF760
:10EC500077FF01220921A068FFF772FF022212212B
:10EC6000E068FFF76DFF0123A361D2E704FF010015
:10EC700089EB0100F8B50700FFF7A4FF1F4B1E68E2
:10EC8000B369002B02D13000FFF7BCFF4836B468EF
:10EC90007368013B04D53368002B22D03668F6E751
:10ECA0000C22A55E002D1AD12000154B5830E360D0
:10ECB000656600F047F8FFF78DFF20000822290065
:10ECC0002560A560656025616561A5615C30FCF724
:10ECD00095FA6563A563A564E5642000F8BD683412
:10ECE000D7E704213800FFF757FF041E3060D5D165
:10ECF000FFF770FF0C233B60EFE7C04604FF010005
:10ED00000100FFFFF7B50400060000270191483419
:10ED10006368A5680093009B013B009304D52468B9
:10ED2000002CF5D13800FEBDAB89012B08D90E228D
:10ED3000AB5E013304D029003000019B98470743A4
:10ED40006835E8E7704770477047000010B5024823
:10ED5000FFF7F9FF10BDC046002A002010B5024899
:10ED6000FFF7F2FF10BDC046002A0020F0B58E6804
:10ED700085B007000C00039201939E423CD890237B
:10ED80008A89DB001A4234D00325096923685B1A9B
:10ED90000293636902985D43EB0F5D19019B6D104F
:10EDA00001331B18AB4200D91D00530532D5290091
:10EDB0003800FFF72DFD061E09D10C233B604023D0
:10EDC0000120A28940421343A38105B0F0BD029AFD
:10EDD0002169FFF7C9FCA389144A1A408023134311
:10EDE000A381029B2661F61826606561019EED1ADB
:10EDF000A560019B9E4200D9019E320003992068C4
:10EE000000F07DFEA36800209B1BA36023689E1971
:10EE10002660DAE72A00380000F084FE061EE0D102
:10EE200038002169FFF7AAFCC7E7C0467FFBFFFF58
:10EE3000F0B5A1B003901D008B890F0016001B06D2
:10EE400011D50B69002B0ED14021FFF7E1FC386092
:10EE50003861002805D10C23039A0138136021B0D2
:10EE6000F0BD40237B61002308AC636120336376EF
:10EE70001033A376079535002B78002B01D0252B76
:10EE800047D1AB1B0593B5420CD032003900039833
:10EE9000FFF76CFF431C00D1AEE06269059B94460E
:10EEA000634463612B78002B00D1A5E0012200238D
:10EEB0005242626004A9543252186E1C2360E3600F
:10EEC000A3601370A36505223178544800F00CFE4E
:10EED000751C00281FD12268D30604D5532304A92A
:10EEE0005B1820211970130704D5532304A95B185C
:10EEF0002B21197033782A2B16D0350000210A20D7
:10EF0000E3682A786E1C303A092A4ED9002911D1BB
:10EF100017E00135B0E7414B2268C01A0123834056
:10EF200013432E002360CEE7079B191D1B68079132
:10EF3000002B01DB0B9304E05B42E36002231343ED
:10EF400023602B782E2B0AD16B782A2B35D1079B87
:10EF500002351A1D1B680792002B2BDB0993304EDC
:10EF600003223000297800F0BFFD002806D040239E
:10EF7000801B8340226801351343236029780622D1
:10EF800028486E1C217600F0AFFD00283CD0264BAF
:10EF9000002B25D10722079B0733934308330793A0
:10EFA0006369049A9B18636165E743433500012157
:10EFB0009B18A6E701235B42D0E700230A201A0032
:10EFC0000135636029786E1C3039092903D9002B7B
:10EFD000C5D00992C3E74243350001235218F1E737
:10EFE00007AB00933A002100104B039800E000BFEC
:10EFF0000490049B0133D3D1BB890D985B0600D4E8
:10F000002DE7012040422AE707AB00933A00210098
:10F01000064B039800F0DEF9EAE7C04690030200D1
:10F02000960302009A030200000000006DED01004B
:10F03000936810B5013B9360002B04DA9469A342F6
:10F0400007DB0A2905D01368581C106019700800E6
:10F0500010BD00F01DFB0100F9E7F8B506000F0038
:10F060001400D518AC4201D1002007E021783A0005
:10F070003000FFF7DDFF0134431CF3D1F8BD000081
:10F08000F0B5A1B006000C001F000392002804D0C8
:10F090008369002B01D1FFF7B5FD8E4B9C421CD13B
:10F0A0007468636EDB0705D4A3899B0502D4A06D49
:10F0B000FFF749FEA3891B0702D52369002B1DD149
:10F0C0002100300000F03AFB002817D0636EDB0708
:10F0D0000DD50120404221B0F0BD7F4B9C4201D1B3
:10F0E000B468DEE77D4B9C42DBD1F468D9E7A389A5
:10F0F0009B05EED4A06DFFF727FEEAE7002308ADDD
:10F100006B6120336B761033AB760797039F3B78A8
:10F11000002B01D0252B4ED1039BFB1A0593039B9B
:10F120009F420DD0059B21003000039AFFF795FF09
:10F13000431C00D1B5E06A69059B944663446B614A
:10F140003B78002B00D1ACE001227B1C0393002311
:10F1500052426A6004A9543252182B60EB60AB60D3
:10F160001370AB65039B052219785D4800F0BCFC69
:10F17000039B5F1C002820D12A68D30604D55323A3
:10F1800004A95B1820211970130704D5532304A97F
:10F190005B182B211970039B1B782A2B16D000219A
:10F1A000EB68039F3A78781C303A8446092A4FD995
:10F1B000002911D117E00137A9E7494B2A68C01A85
:10F1C0000123834013432B600397CBE7079B191D53
:10F1D0001B680791002B01DB0B9304E05B42EB60A3
:10F1E000022313432B603B782E2B0AD17B782A2BEA
:10F1F00037D1079B02371A1D1B680792002B2DDBA6
:10F20000099303223978374800F06EFC002807D0B4
:10F21000344B2A68C01A40238340134301372B60C4
:10F2200039787B1C062230480393297600F05CFC79
:10F23000002845D02D4B002B27D10722079B0733F1
:10F240009343083307936B69049A9B186B615DE7DE
:10F250000A214B4367469B180939A3E701235B4208
:10F26000CEE700231A0001376B603978781C3039FB
:10F270008446092903D9002BC3D00992C1E70A2388
:10F280005A4367465218093BEFE707AB0093220049
:10F2900029003000164B00E000BF0490049B0133AE
:10F2A000D1D1636EDB0705D4A3899B0502D4A06D81
:10F2B000FFF74AFDA3895B0600D50AE70D980AE728
:10F2C00007AB0093220029003000094B00F082F8C0
:10F2D000E3E7C0465003020070030200300302005F
:10F2E00090030200960302009A030200000000004F
:10F2F0005BF00100F7B5150001938A680B690C00FB
:10F300000090934200DA130022002B6043321278FF
:10F31000002A01D001332B6023689B0602D52B689D
:10F3200002332B602268062317001F401A4227D0A1
:10F33000230043331B785A1E93412268920630D42F
:10F34000220001990098089E4332B047431C25D003
:10F35000062320682A68E16800250340042B03D1B6
:10F360008D1AEB43DB171D40A3682269934201DD30
:10F370009B1AED180027BD4220D1002010E0013774
:10F38000E3682A689B1ABB42D2DD2200012301995F
:10F390000098089E1932B047431CF0D1012040422A
:10F3A000FEBD3020E1184331087021005A1C453160
:10F3B0000978A218433202331170C1E722000123F9
:10F3C00001990098089E1A32B047431CE6D00137D5
:10F3D000D1E70000F0B58BB006920A0043320793E4
:10F3E000059004920A7E0C00109B782A06D8622AA7
:10F3F00008D8002A00D1C0E0582A52D02600423650
:10F40000327022E0100063381528F7D800F0F0FBC6
:10F4100016001F00F6FFF6FFF6FFF6FF1F00F6FFCF
:10F42000F6FFF6FFF6FFA80036009A00F6FFF6FF9B
:10F43000B900F6FF3600F6FFF6FF9E0026001A68B8
:10F440004236111D1960136833700123A7E0086864
:10F4500019680A1D05060BD50D681A60002D03DA20
:10F460002D23049A6D421370614B0A27039332E0F7
:10F470000D681A604106F1D52DB2EFE70D681968E5
:10F48000081D18602E0601D50D6803E06D06FBD53A
:10F490000D68ADB2564B0A2703936F2A17D1082780
:10F4A00015E045310A70524A03921A68216820CA51
:10F4B0001A60080650D5CB0702D5202319432160D6
:10F4C0001027002D03D1202322689A4322602300B5
:10F4D000002243331A706368A360002B03DB04220D
:10F4E000216891432160002D02D1049E002B0CD095
:10F4F000049E28003900FFF73DF8039B013E5B5C4A
:10F5000033702B0005009F42F3D9082F09D12368DF
:10F51000DB0706D563682269934202DC3023013E93
:10F520003370049B9B1B2361079B2100009305986C
:10F53000069B09AAFFF7DEFE431C35D1012040429D
:10F540000BB0F0BD202209680A4322602200782116
:10F5500045321170274AA7E74806ACD5ADB2AAE7F5
:10F560001A680D68101D4969186013682E0601D5C8
:10F57000196002E06D06FBD519800023049E23610B
:10F58000D2E71A68111D1960166800213000626800
:10F5900000F0AAFA002801D0801B60606368236134
:10F5A0000023049A1370BFE7236932000699059877
:10F5B000079DA847431CC1D023689B0715D4099B0E
:10F5C000E0689842BCDA1800BAE7220001230699E5
:10F5D0000598079E1932B047431CAFD00135E36848
:10F5E000099A9B1AAB42F0DCE9E70025F7E7C04631
:10F5F000A1030200B203020070B50C000E25495FA2
:10F6000000F0B6FA002803DB636D1B18636570BD5C
:10F61000A389024A1340A381F9E7C046FFEFFFFF29
:10F62000F8B51F008B8905000C001600DB0505D519
:10F630000E23C95E0022022300F0D6F9A389054AF1
:10F6400028001340A38132000E23E15E3B00FDF74A
:10F65000B3FCF8BDFFEFFFFF70B50C000E25495F4E
:10F6600000F0C2F9A389421C03D1054A1340A381CB
:10F6700070BD802252011343A3816065F8E7C04644
:10F68000FFEFFFFF10B50E23C95E00F0CFF810BDED
:10F69000F8B505000E001400002804D08369002B83
:10F6A00001D1FFF7AFFA224B9C422ED16C68A369BF
:10F6B000A360A3891B0732D52369002B2FD02368B1
:10F6C0002269F7B2981A6369F6B2834205DC210019
:10F6D000280000F049F9002827D1A3680130013B38
:10F6E000A36023685A1C22601F706369834204D0A0
:10F6F000A389DB0707D50A2E05D12100280000F0D9
:10F7000033F9002811D13000F8BD0A4B9C4201D1D9
:10F71000AC68CCE7084B9C42C9D1EC68C7E7210034
:10F72000280000F00BF80028C9D001267642EAE74D
:10F73000500302007003020030030200374B70B523
:10F740001D6806000C00002D05D0AB69002B02D10E
:10F750002800FFF757FA324B9C420FD16C680C23FC
:10F76000E25E93B211072DD4D90611D409230120EA
:10F77000336037331343A381404270BD294B9C4211
:10F7800001D1AC68EBE7284B9C42E8D1EC68E6E796
:10F790005B0713D5616B002908D0230044339942DD
:10F7A00002D03000FEF7EAFF002363632422A3891E
:10F7B0009343A38100236360236923600823A28904
:10F7C0001343A3812369002B0BD1A0218022A3899D
:10F7D000890092000B40934203D02100300000F0DA
:10F7E0003FF90C22A35E01201A0099B202400342A5
:10F7F0000FD00022A26062695242A26100202269F9
:10F800008242BAD10A06B8D540221343A3810138F7
:10F81000B3E7880700D46269A260EFE7E81F002021
:10F82000500302007003020030030200002370B591
:10F83000064D040008002B6000F022FB431C03D19E
:10F840002B68002B00D0236070BDC046082A002022
:10F85000F7B58B8905000C001A075FD44A68002AA7
:10F8600004DC0A6C002A01DC0020FEBDE76A002FE0
:10F87000FAD0002280212E682A601A0049010A402D
:10F880000B4234D0606DA3895B0706D56368C01A4C
:10F89000636B002B01D0236CC01A0200216A002385
:10F8A0002800E76AB847A189431C06D12B681D2BA5
:10F8B00031D82C4ADA40D3072DD500236360236961
:10F8C0002360CB0405D5431C02D12B68002B00D14B
:10F8D0006065616B2E600029C6D0230044339942D5
:10F8E00002D02800FEF74AFF00206063BDE7012335
:10F8F0002800216AB847431CC5D12B68002BC2D011
:10F900001D2B01D0162B01D12E60ADE74023A2891B
:10F910001343A381A9E740230B43FAE70F69002FA4
:10F92000A2D00A680F60D21B019200229B0700D16F
:10F930004A69A260019B002B00DC95E73A00280091
:10F94000019B216AA66AB047002806DC40230120FB
:10F95000A28940421343A38187E7019B3F181B1AEA
:10F960000193E7E7010040200B6970B505000C002A
:10F97000002B02D10025280070BD002804D0836927
:10F98000002B01D1FFF73EF9144B9C421BD16C6850
:10F990000C22A35E002BEDD0626ED20704D49B052F
:10F9A00002D4A06DFFF7CFF928002100FFF750FF28
:10F9B000636E0500DB07DED4A3899B05DBD4A06D55
:10F9C000FFF7C2F9D7E7064B9C4201D1AC68DFE7ED
:10F9D000044B9C42DCD1EC68DAE7C04650030200DD
:10F9E000700302003003020070B50400080011002B
:10F9F0001A000023054D2B6000F05AFA431C03D176
:10FA00002B68002B00D0236070BDC046082A002060
:10FA100070B50E001D000E23C95E140096B00029BB
:10FA200007DA00232B60B3891B0611D48023DB0087
:10FA30000FE06A4600F0B0F80028F2DBF0230199ED
:10FA40001B021940054BC9184B4259412960EDE78B
:10FA500040230020236016B070BDC04600E0FFFFC9
:10FA6000F7B502268B8905000C00334206D023002F
:10FA700047332360236101236361F7BD6A4601AB0D
:10FA8000FFF7C6FF009907002800FEF7C1FE002817
:10FA900008D10C22A35E9A05EFD4032293431E43A0
:10FAA000A681E4E70F4BAB628023A2892060134359
:10FAB000A381009B20616361019B002B0DD0280076
:10FAC0000E23E15E00F07AF8002806D00322A38915
:10FAD00093431A0001231343A381A0890743A781FD
:10FAE000CBE7C04689EB0100C9B28218904201D130
:10FAF0000020704703788B42FBD00130F6E710B549
:10FB0000884202D98B18984203D3002307E08B5C0C
:10FB10008354013AFBD210BDCC5CC45401339A42E9
:10FB2000FAD1F8E7F8B507000D001600002905D155
:10FB30001100FEF76DFE04002000F8BD002A03D17D
:10FB4000FEF71CFE3400F7E700F04AF82C00B04244
:10FB5000F2D231003800FEF75BFE041EECD0290023
:10FB60003200FEF701FE29003800FEF707FEE3E74A
:10FB700070B50400080011001A000023054D2B6029
:10FB800000F09EF9431C03D12B68002B00D02360AA
:10FB900070BDC046082A0020002370B5064D040041
:10FBA000080011002B6000F073F9431C03D12B688F
:10FBB000002B00D0236070BD082A0020002370B500
:10FBC000064D040008002B6000F06AF9431C03D1C5
:10FBD0002B68002B00D0236070BDC046082A00208F
:10FBE0000B1F1B68181F002B01DA0B58C018704739
:10FBF00003B47146490840004900095E49008E443B
:10FC000003BC7047002B11D1002A0FD1002900D16D
:10FC1000002802D00021C943081C07B4024802A1F1
:10FC20004018029003BDC04629EBFFFF03B46846AD
:10FC300001B5029800F02EF8019B9E4602B00CBC64
:10FC40007047C046F0B515042D0C0F0001002E00C2
:10FC5000C64684460004140C000C090C46434D4370
:10FC6000604361434019340C241800B5A54203D900
:10FC70008020400280464144250C6D18614659435E
:10FC80007A43300449192404000C2018891880BCD8
:10FC9000B846F0BDF0B557464E464546DE46E0B59F
:10FCA00004000D009246994683B08B4230D82DD087
:10FCB0004946504600F0BAF829000600200000F03E
:10FCC000B5F8331A9846203B9B4633D45A465346E0
:10FCD000934042461F00534693401E00AF423AD81D
:10FCE000AF4200D178E05B46A41BBD41002B00DA97
:10FCF00075E0002200230092019301235A469340AD
:10FD00000193012342469340009328E08242CFD9D9
:10FD100000220023009201930C9B002B01D01C6059
:10FD20005D600098019903B0F0BCBB46B246A9469D
:10FD3000A046F0BD424620239B1A5246DA40414677
:10FD400013004A468A40170042461F4353469340D9
:10FD50001E00AF42C4D90022002300920193434603
:10FD6000002BD9D0FB0772081A4346467B080EE0E9
:10FD7000AB4201D1A2420CD8A41A9D410120241902
:10FD80006D410021013E24184D41002E06D0AB42AA
:10FD9000EED9013E24196D41002EF8D10098019949
:10FDA0005B4600196941002B24DB2B005A46444670
:10FDB000D3402A00E2401C005B461500002B2ADBE2
:10FDC00026009E40330026004746BE403200801A7F
:10FDD0009941009001919FE7A342BCD883E7424636
:10FDE000202300219B1A0022009101920122DA4077
:10FDF000019286E7424620239B1A2A0046469A40F3
:10FE00002300F340444613432A00E2401C005B46B3
:10FE10001500002BD4DA42462F00202326009740FD
:10FE20009B1ADE403B003343CDE7C04610B50029A6
:10FE300003D100F007F8203002E0081C00F002F8BF
:10FE400010BDC0461C2101231B04984201D3000CA5
:10FE500010391B0A984201D3000A08391B0998423D
:10FE600001D30009043902A2105C40187047C04653
:10FE70000403020201010101000000000000000073
:10FE800058220120014B40421A607047082A002086
:10FE900058220120014B40421A607047082A002076
:10FEA0005822024B00201A607047C046082A0020E2
:10FEB00058220120014B40421A607047082A002056
:10FEC00058220120014B40421A607047082A002046
:10FED000044A03001068002802D0C318136070475A
:10FEE0000148FAE774290020102A0020F8B5C0461E
:10FEF000F8BC08BC9E467047F8B5C046F8BC08BCC4
:10FF00009E467047EC1F0020111213141516171887
:10FF100050C50100BAC40100BAC4010026C50100E1
:10FF2000CCC50100F0C40100AEC50100BCC5010094
:10FF300076C4010090C4010076C4010090C40100A1
:10FF400018C5010036C4010036C4010036C40100E2
:10FF500036C4010036C401005EC501006CC5010055
:10FF600080C5010094C50100AEC40100AEC401000B
:10FF70004352433A2025640A000000004372632084
:10FF8000636F756E743A2025642025642025640A09
:10FF900000000000310A0000627265616B0A000017
:10FFA00053656E64207A65726F207061636B616760
:10FFB000650A0000436F6E6E65637465640A000035
:10FFC000446973636F6E6E65637465640A00000054
:10FFD000424C455F4556545F555345525F4D454D24
:10FFE0005F524551554553540A000000496E7465EF
:10FFF0007276616C3A2025640A0000002CCB010067
:020000022000DC
:10000000D2CB0100E0CB01002CCB01002CCB0100B6
:100010002CCB01002CCB01002CCB01002CCB010000
:100020002CCB01002CCB01002CCB01002CCB0100F0
:100030002CCB01002CCB01002CCB01005ACB0100B2
:1000400072CB01003CCB010046CB01002CCB010060
:100050002CCB01002CCB01002CCB01002CCB0100C0
:100060002CCB01002CCB01002CCB01002CCB0100B0
:100070002CCB01002CCB01002CCB01002CCB0100A0
:100080002CCB01002CCB01002CCB01002CCB010090
:100090002CCB01002CCB01002CCB01002CCB010080
:1000A0002CCB01002CCB01002CCB01002CCB010070
:1000B0002CCB01002CCB01002CCB01002CCB010060
:1000C0002CCB01002CCB01002CCB01002CCB010050
:1000D0002CCB01002CCB01002CCB01002CCB010040
:1000E0002CCB01001CCB01002CCB01002CCB010040
:1000F0002CCB01002CCB01002CCB01002CCB010020
:100100002CCB01002CCB01002CCB01002CCB01000F
:100110002CCB01002CCB01002CCB01002CCB0100FF
:100120002CCB01002CCB01002CCB01002CCB0100EF
:100130002CCB01002CCB01002CCB01002CCB0100DF
:1001400092CB0100BECB01003CCB01002CCB0100C7
:100150001CCB01005374723A2025730A0000000082
:100160004E6F7264696320554152543A20256400F1
:1001700044617461206C656E6774683A2025640A76
:10018000000000004572726F720A000044617461E1
:100190002073697A6520697320746F6F20626967C4
:1001A0000000000057726F6E6720636F6D6D616EA7
:1001B000640000006E616D650000000061646320F2
:1001C0006F6E200067657420000000004E6F72643F
:1001D00069635F55415254000D0A554152542053F2
:1001E00074617274210D0A00010000075465726D7C
:1001F000696E616C0000000052545400534547473B
:1002000045520000F0D80100DED8010052D80100AC
:100210009AD80100F8D80100242900209ECADC24C5
:100220000EE5A9E093F3A3B50000406E0020202066
:100230002020202020202828282828202020202096
:100240002020202020202020202020202088101066
:1002500010101010101010101010101010040404C2
:100260000404040404040410101010101010414180
:10027000414141410101010101010101010101016E
:100280000101010101010101101010101010424282
:10029000424242420202020202020202020202023E
:1002A00002020202020202021010101020000000DE
:1002B000000000000000000000000000000000003E
:1002C000000000000000000000000000000000002E
:1002D000000000000000000000000000000000001E
:1002E000000000000000000000000000000000000E
:1002F00000000000000000000000000000000000FE
:1003000000000000000000000000000000000000ED
:1003100000000000000000000000000000000000DD
:1003200000000000000000000000000000000000CD
:1003300000000000000000000000000000000000BD
:1003400000000000000000000000000000000000AD
:10035000000000000000000000000000000000009D
:10036000000000000000000000000000000000008D
:10037000000000000000000000000000000000007D
:10038000000000000000000000000000000000006D
:10039000232D302B2000686C4C006566674546476E
:1003A00000303132333435363738394142434445F1
:1003B0004600303132333435363738396162636460
:0803C00065660000000000006A
:0803C80040ADFF7F01000000C1
:1003D000EC1F002000000000500302007003020028
:1003E00030030200000000000000000000000000D8
:1003F00000000000000000000000000000000000FD
:1004000000000000000000000000000000000000EC
:1004100000000000000000000000000000000000DC
:1004200000000000000000000000000000000000CC
:100430000000000001000200FFFF0000CC270020A8
:1004400000000000EC270020000000000024F40061
:08045000E9B00100C1B0010098
:040000031000DEA962
:00000001FF
